:100000000C9442010C9473010C9473010C947301D1
:100010000C9473010C9473010C9473010C94730190
:100020000C9473010C9473010C9473010C94730180
:100030000C9473010C9473010C9473010C94730170
:100040000C9473010C9473010C9473010C94730160
:100050000C9473010C9473010C9473010C94F305CC
:100060000C9473010C94BD050C9493050C947301CE
:100070000C9473010C9473010C9473010C94730130
:100080000C9473010C9473010C9473010C94730120
:100090000C9473010C9473010C9473010C94730110
:1000A0000C9473010C9473010C9473010C94730100
:1000B0000C9473010C9473010C9473010C947301F0
:1000C0000C9473010C9473010C9473010C947301E0
:1000D0000C9473010C9473010C9473010C947301D0
:1000E0000C9473010C9415080C9494010C94E40185
:1000F0000C9429080C94F2010C943D060C944003D6
:100100000C941F080C94FD020C9477020C942A02A4
:100110000C9409080C9424030C943C030C94550390
:100120000C94FD070C9432030C94C1010C94360816
:100130000C941E030C944A030C941B030C94EE03C2
:100140000C9428030C9433080C94D0010C94F802FE
:100150000C9413030C944E030C9417030C942E036D
:100160000C94E4070C94D4070C9444030C940F03F0
:100170000C9436030C9454030C94E70700000A0B0C
:1001800002090C0D0E080703040100000000000026
:10019000000000000000000000000000000000005F
:1001A000000000000000000012111000000000001C
:1001B000000000000000000000000000000000003F
:1001C000000000002200250028002B002E00310036
:1001D000340002010000050108010B0100002100AC
:1001E000240027002A002D00300033000101000008
:1001F000040107010A0105050505070508080808A7
:10020000020202020A0A08080404040401010101AE
:1002100001010101030303030303030304070707A9
:100220000C0C0C0C0C0C0C0C02020202060606064E
:10023000060606060B0B0B0B0B0B0B0B010210201B
:10024000200808102040102040800201020108040C
:1002500002010102040810204080804020100804A0
:1002600002018004020180402010080402010804F9
:10027000020101020408102040800102040810203D
:1002800040803D0611241FBECFEFD1E2DEBFCDBFBF
:1002900000E00CBF12E0A0E0B2E0EAECF0E100E028
:1002A0000BBF02C007900D92AE33B107D9F723E020
:1002B000AEE3B2E001C01D92A633B207E1F711E050
:1002C000C2E4D1E000E006C021970109802FFE01C1
:1002D0000E945B08C134D10780E00807A9F70E949B
:1002E000CD060C9463080C94000090E0FC01E45CE3
:1002F000FD4F24918A509E4FFC018491882399F0F0
:1003000090E0880F991FFC01E452FE4FA591B49133
:10031000FC01EE53FE4F859194918FB7F894EC91C8
:10032000E22BEC938FBF0895AF92BF92CF92DF92F2
:10033000EF92FF920F931F93CF93DF936C017B019A
:100340008B01040F151FEB015E01AE18BF08C0172B
:10035000D10759F06991D601ED91FC910190F0819E
:10036000E02DC6011995892B79F7C501DF91CF9151
:100370001F910F91FF90EF90DF90CF90BF90AF90C3
:100380000895FC01538D448D252F30E0842F90E09B
:10039000821B930B541710F0CF9608950197089580
:1003A000FC01918D828D981761F0A28DAE0FBF2F49
:1003B000B11D5D968C91928D9F5F9F73928F90E09F
:1003C00008958FEF9FEF0895FC01918D828D98170E
:1003D00031F0828DE80FF11D858D90E008958FEF4B
:1003E0009FEF0895FC01918D228D892F90E0805C14
:1003F0009F4F821B91098F739927089581E592E0A1
:100400000E94F20121E0892B09F420E0822F089557
:10041000FC01A48DA80FB92FB11DA35ABF4F2C9179
:10042000848D90E001968F739927848FA689B78970
:100430002C93A089B1898C91837080648C93938D67
:10044000848D981306C00288F389E02D80818F7D0A
:1004500080830895EF92FF920F931F93CF93DF93C2
:10046000EC0181E0888F9B8D8C8D98131AC0E889F0
:10047000F989808185FF15C09FB7F894EE89FF89BF
:100480006083E889F98980818370806480839FBF5D
:1004900081E090E0DF91CF911F910F91FF90EF905D
:1004A0000895F62E0B8D10E00F5F1F4F0F7311276D
:1004B000E02E8C8D8E110CC00FB607FCFACFE889A8
:1004C000F989808185FFF5CFCE010E940802F1CF26
:1004D000EB8DEC0FFD2FF11DE35AFF4FF0829FB71C
:1004E000F8940B8FEA89FB8980818062CFCFCF930C
:1004F000DF93EC01888D8823B9F0AA89BB89E8894C
:10050000F9898C9185FD03C0808186FD0DC00FB6F1
:1005100007FCF7CF8C9185FFF2CF808185FFEDCF6F
:10052000CE010E940802E9CFDF91CF91089580E0CB
:1005300090E0892B29F00E94FE0181110E940000A9
:1005400080E090E0892B49F080E090E0892B29F051
:100550000E94000081110E94000080E090E0892B41
:1005600049F080E090E0892B29F00E940000811181
:100570000E94000080E090E0892B49F080E090E04C
:10058000892B29F00E94000081110C94000008952D
:10059000282F30E0F901E458FE4F9491F901E45C12
:1005A000FD4F44912A503E4FF9012491222309F432
:1005B00035C0992311F191509231F8F4E92FF0E010
:1005C0008827EA51FD4F8F4F0C945B0817031B03DC
:1005D000F8020F031303FD021E03240328032E0356
:1005E000320336033C034003FD0244034A034E0337
:1005F000809180008F7780938000E22FF0E0EE0FF3
:10060000FF1FEE53FE4FA591B4918FB7F894EC9174
:10061000611148C040954E234C938FBF089580913F
:1006200080008F7DE8CF80918000877FE4CF84B504
:100630008F7784BDE2CF84B58F7DFBCF8091B000F2
:100640008F778093B000D9CF8091B0008F7DF9CFA4
:10065000809190008F7780939000CFCF8091900011
:100660008F7DF9CF80919000877FF5CF8091A0009A
:100670008F778093A000C1CF8091A0008F7DF9CFAC
:100680008091A000877FF5CF809120018F778093A4
:100690002001B3CF809120018F7DF9CF809120017F
:1006A000877FF5CF4E2BB8CF089590E080E0089576
:1006B000CF93DF93EC0160E08E810E94C80261E07D
:1006C0008E810E94C80260E08E810E94C8028BE881
:1006D00091E00197F1F7DF91CF910895CF92DF92EA
:1006E000EF92FF920F931F93CF93DF936C017C01E6
:1006F00087E0E80EF11CD0E0C0E0062F10E0B80162
:100700000C2E02C0759567950A94E2F76170F701A7
:1007100081917F010E94C8022196C430D10579F7EA
:10072000C601DF91CF911F910F91FF90EF90DF9065
:10073000CF900C945803CF92DF92EF92FF920F93D9
:100740001F93CF93DF93EC01F62E642F8C810E94D0
:10075000C8028D818F3F19F060E00E94C8020F2D02
:1007600010E08F8584FF25C06E0187E0C80ED11C84
:10077000F12CE12CB8010E2C02C0759567950A94F6
:10078000E2F76170F60181916F010E94C802FFEFEC
:10079000EF1AFF0A88E0E816F10461F7CE01DF9155
:1007A000CF911F910F91FF90EF90DF90CF900C941D
:1007B0005803B80184E0759567958A95E1F7CE01F5
:1007C0000E946E036F2DCE01DF91CF911F910F918B
:1007D000FF90EF90DF90CF900C946E0341E00E9469
:1007E0009B0381E090E0089540E00C949B03FC01A2
:1007F0002389621710F06FEF620FFC01E60FF11D05
:10080000648960680C94F40361E00E94F4038BE354
:100810009FE10197F1F708950F931F93CF93DF9313
:10082000EC01413019F08F8588608F874B8B1C8AD3
:1008300080E48D8B6E8B605C6F8B8C810E94750168
:100840008D818F3F11F00E9475018E810E9475018C
:100850008E0198012C1B3D0B8F8584FD0CC084E01C
:1008600090E00F5F1F4F2817390744F4F801868185
:100870000E947501EECF88E090E0F3CF8BE39DE01E
:100880000197F1F760E08C810E94C80260E08E81E0
:100890000E94C8028D818F3F19F060E00E94C8025B
:1008A0006F8564FD34C063E0CE010E946E030BE4EB
:1008B00016E4C8010197F1F763E0CE010E946E03D0
:1008C000C8010197F1F763E0CE010E946E0383E552
:1008D00092E00197F1F762E0CE010E946E036F850E
:1008E0006062CE010E94F40384E0888B6CE0CE014C
:1008F0000E94F403CE010E94040482E0898B66E02A
:10090000CE01DF91CF911F910F910C94F40360629F
:10091000CE010E94F4038BE496E40197F1F76F8512
:100920006062CE010E94F40383E592E00197F1F743
:100930006F856062CE010E94F403D1CFFB0101906C
:100940000020E9F73197AF01461B570BDC01ED9111
:10095000FC910280F381E02D19948F929F92AF92C7
:10096000BF92CF92DF92EF92FF920F931F93CF939C
:10097000DF93CDB7DEB7A1970FB6F894DEBF0FBEF9
:10098000CDBF8C016B01770FEE08FF08F7FE3FC06B
:1009900041E06DE20E949B0322273327A9012C1915
:1009A0003D094E095F0919A2CE0181967C019AE0AA
:1009B000892E912CA12CB12CCA01B901A501940159
:1009C0000E943908605DF70162937F0121153105AE
:1009D0004105510589F790E080E0309721F0BF0193
:1009E000C8010E949E040196A1960FB6F894DEBF3E
:1009F0000FBECDBFDF91CF911F910F91FF90EF9070
:100A0000DF90CF90BF90AF909F908F900895A701F7
:100A1000960119A2CE0181967C018AE0882E912C44
:100A2000A12CB12CCA01B901A50194010E94390879
:100A3000605DF70162937F01211531054105510584
:100A400089F790E080E0309779F2BF01C8010E94F9
:100A50009E04CACF8EE193E00E94040486E093E0F6
:100A60000E9404048EEE92E00E94040480914D02E4
:100A700063E372E08823A9F06EE172E08EE193E017
:100A80000E949E0461E08EE193E00E94F703609172
:100A90004702709148028EE193E00E94AD046BE240
:100AA00072E08EE193E00E949E0480914E0263E327
:100AB00072E08823A9F06EE172E086E093E00E9484
:100AC0009E0461E086E093E00E94F7036091490292
:100AD00070914A0286E093E00E94AD046BE272E0FE
:100AE00086E093E00E949E0480914F0263E372E0EF
:100AF0008823A9F06EE172E08EEE92E00E949E04DF
:100B000061E08EEE92E00E94F70360914B027091DB
:100B10004C028EEE92E00E94AD046BE272E08EEE2B
:100B200092E00C949E041F920F920FB60F92112424
:100B30000BB60F922F933F934F935F936F937F93D7
:100B40008F939F93AF93BF93EF93FF9381E592E0D1
:100B50000E940802FF91EF91BF91AF919F918F91F9
:100B60007F916F915F914F913F912F910F900BBEAD
:100B70000F900FBE0F901F9018951F920F920FB6F7
:100B80000F9211240BB60F922F938F939F93EF9395
:100B9000FF93E0916102F09162028081E09167022F
:100BA000F091680282FD1DC0908180916A028F5F82
:100BB0008F7320916B02821741F0E0916A02F0E09E
:100BC000EF5AFD4F958F80936A02FF91EF919F91AD
:100BD0008F912F910F900BBE0F900FBE0F901F9013
:100BE00018958081F2CF1F920F920FB60F921124A9
:100BF0002F933F938F939F93AF93BF938091430223
:100C000090914402A0914502B09146023091420277
:100C100023E0230F2D3758F50196A11DB11D209318
:100C200042028093430290934402A0934502B09302
:100C3000460280913E0290913F02A0914002B09105
:100C400041020196A11DB11D80933E0290933F0287
:100C5000A0934002B0934102BF91AF919F918F91B9
:100C60003F912F910F900FBE0F901F90189526E87F
:100C7000230F0296A11DB11DD2CFCF92DF92EF922A
:100C8000FF920F931F93CF93DF93E1E5F2E013827E
:100C9000128288EE93E0A0E0B0E084839583A6837F
:100CA000B78384E092E09183808385EC90E0958720
:100CB000848784EC90E09787868780EC90E0918B26
:100CC000808B81EC90E0938B828B82EC90E0958B13
:100CD000848B86EC90E0978B868B118E128E138E10
:100CE000148EEEE1F3E01382128206E112E011832A
:100CF000008383E2C82EC482DD24DA94D58284E2A4
:100D0000868398E2E92EE78229E2F22EF086DAE283
:100D1000D187CBE2C287138614861586168617867E
:100D200041E060E1CF010E940C04E6E0F3E01382B1
:100D3000128211830083C482D58285E28683E78292
:100D4000F086D187C2871386148615861686178685
:100D500041E060E1CF010E940C04EEEEF2E013826C
:100D6000128211830083C482D58286E28683E78261
:100D7000F086D187C2871386148615861686178655
:100D800041E060E1CF01DF91CF911F910F91FF9082
:100D9000EF90DF90CF900C940C04789484B582602F
:100DA00084BD84B5816084BD85B5826085BD85B50F
:100DB000816085BD80916E00816080936E0010928D
:100DC0008100809181008260809381008091810008
:100DD0008160809381008091800081608093800099
:100DE0008091B10084608093B1008091B0008160F7
:100DF0008093B000809191008260809391008091F7
:100E00009100816080939100809190008160809337
:100E100090008091A10082608093A1008091A10048
:100E200081608093A1008091A00081608093A000E8
:100E30008091210182608093210180912101816054
:100E40008093210180912001816080932001809115
:100E50007A00846080937A0080917A008260809327
:100E60007A0080917A00816080937A0080917A0084
:100E7000806880937A001092C100E0916102F09145
:100E8000620282E08083E0915D02F0915E02108256
:100E9000E0915F02F09160028FEC80831092690212
:100EA000E0916502F091660286E08083E091630242
:100EB000F0916402808180618083E0916302F0910F
:100EC0006402808188608083E0916302F091640213
:100ED000808180688083E0916302F0916402808168
:100EE0008F7D808344E064E18EE193E00E940C04F6
:100EF0008EE193E00E94040460E08EE193E00E94A2
:100F0000F70344E064E186E093E00E940C0486E08D
:100F100093E00E94040460E086E093E00E94F703FF
:100F200044E064E18EEE92E00E940C048EEE92E0CA
:100F30000E94040460E08EEE92E00E94F703C1E09C
:100F400081E592E00E94F201892B09F453C081E50A
:100F500092E00E94D001D82F682F81E592E00E9494
:100F60002A026AE372E081E592E00E949E04809189
:100F70005002882309F43AC0ED2F0D2E000CFF0B10
:100F8000F097EA30F10580F58827E653F84F8F4F48
:100F90000C945B08D407E707FD07090815081F082C
:100FA000290833083608E4071092480210924702D5
:100FB00010924A021092490210924C0210924B0277
:100FC00010924D0210924E0210924F020BC080916F
:100FD00047029091480201969093480280934702FD
:100FE000C0934D020E942A0510925002D43211F48F
:100FF000C09350020E949702A3CF80914902909122
:101000004A02019690934A0280934902C0934E028D
:10101000E9CF80914B0290914C02019690934C0243
:1010200080934B02C0934F02DDCF80914702909195
:10103000480201979093480280934702D3CF809152
:10104000490290914A02019790934A028093490283
:10105000C9CF80914B0290914C02019790934C0222
:1010600080934B02BFCF10924D02BCCF10924E0224
:10107000B9CFA1E21A2EAA1BBB1BFD010DC0AA1FEE
:10108000BB1FEE1FFF1FA217B307E407F50720F0F1
:10109000A21BB30BE40BF50B661F771F881F991F6C
:1010A0001A9469F760957095809590959B01AC01B5
:1010B000BD01CF010895EE0FFF1F881F8BBF079062
:0A10C000F691E02D1994F894FFCF8B
:1010CA00000000002A029401C1017702F201D00156
:1010DA00E40100000000EE03940155035403446F39
:1010EA006F72206973206F70656E0020706572736D
:0E10FA006F6E004C6F636B6564000D0A0000A2
:00000001FF
