:100000000C9495010C94C6010C94C6010C94C60185
:100010000C94C6010C94C6010C94C6010C94C60144
:100020000C94C6010C94C6010C94C6010C94C60134
:100030000C94C6010C94C6010C94C6010C94C60124
:100040000C94C6010C94C6010C94C6010C94C60114
:100050000C94C6010C94C6010C94C6010C942F0A92
:100060000C94C6010C94F9090C94CF090C94C601A8
:100070000C94C6010C94C6010C94C6010C94C601E4
:100080000C94C6010C94C6010C94C6010C94C601D4
:100090000C94C6010C94C6010C94C6010C94790A08
:1000A0000C94C6010C94C6010C94C6010C94C601B4
:1000B0000C94C6010C94C6010C94C6010C94C601A4
:1000C0000C94C6010C94C6010C94C6010C94C60194
:1000D0000C94C6010C94C6010C94C6010C94C60184
:1000E0000C94C6010C94FA0D0C942A0E0C94D903AE
:1000F0000C942B0F0C948E0F0C94320E0C949B10BE
:100100000C94120E0C946B100C94020E0C94CF03F2
:100110000C948A020C9445030C94F20D0C94031079
:100120000C9400100C94BA030C948B100C94A00740
:100130000C949F070C945B020C9425080C94BB0252
:100140000C94760F0C9457040C94F6070C94C20789
:100150000C945D0F0C9499020C947E0F0C94C903BF
:100160000C94E1030C9493100C94AF070C94280F9B
:100170000C94EF030C94AD0D0C94EB030C94B403AE
:100180000C94AB100C94F3020C94F9030C94AD0294
:100190000C94E80D0C940A0E0C94650F0C94D30388
:1001A0000C941E0F0C949D0B0C94C6030C94C2036C
:1001B0000C9497040C94E7030C9477100C945D0254
:1001C0000C941A0E0C94790D0C945F100C94C907C2
:1001D0000C945C020C94F4030C94550F0C944D0F8A
:1001E0000C94F50F0C94DD030C94BE030C94860F55
:1001F0000C9483100C94F5030C9426040C94220E9A
:100200000C94A3100C946E0F000021002400270012
:100210002A002D0030003300010100000401070115
:100220000A0100002200250028002B002E003100CA
:10023000340002010000050108010B01000020004C
:100240002300260029002C002F00320000010000AE
:100250000301060109010505050507050808080849
:10026000020202020A0A080804040404010101014E
:100270000101010103030303030303030407070749
:100280000C0C0C0C0C0C0C0C0202020206060606EE
:10029000060606060B0B0B0B0B0B0B0B01021020BB
:1002A00020080810204010204080020102010804AC
:1002B0000201010204081020408080402010080440
:1002C0000201800402018040201008040201080499
:1002D00002010102040810204080010204081020DD
:1002E000408000000A0B02090C0D0E0807030401F0
:1002F00000000000000000000000000000000000FE
:1003000000000000000000000000000000001211CA
:1003100010000000000000000000000000000000CD
:1003200000000000000000009D0B11241FBECFEF55
:10033000D1E2DEBFCDBF00E00CBF14E0A0E0B2E030
:10034000E4E7F2E200E00BBF02C007900D92AE3E80
:10035000B107D9F726E0AEEEB4E001C01D92A73E8A
:10036000B207E1F711E0C5E9D1E000E006C021974E
:100370000109802FFE010E943011C439D10780E0AD
:100380000807A9F70E943C0C0C9438110C9400004B
:1003900096E0899FD0011124A858B94F90967C937C
:1003A0006E935F9791E091969C939197E091E5060B
:1003B000F091E6069091E406992339F0309751F0D8
:1003C000811108C0809194061994309719F05C96B9
:1003D0008C91FACF0895CF92DF92EF92FF920F9314
:1003E0001F9396E0899FF0011124E858F94F11A25C
:1003F000278D30A12130310551F178F022303105BF
:1004000009F451C02330310509F452C01F910F91F6
:10041000FF90EF90DF90CF9008956623B9F361E0ED
:1004200070E00E94C8012FB7F8948091CB0590919D
:10043000CC05A091CD05B091CE052FBF8093D006FD
:100440009093D106A093D206B093D306DFCF9FB787
:10045000F894C090CB05D090CC05E090CD05F090FD
:10046000CE059FBF0091D0061091D1062091D206F3
:100470003091D306C01AD10AE20AF30A0091E206CB
:100480001091E30630E020E00C151D052E053F0518
:1004900050F462E070E01F910F91FF90EF90DF90B9
:1004A000CF900C94C8016111B1CF63E070E0F3CF3D
:1004B00070E060E0F0CF08950895AF92BF92CF92C0
:1004C000DF92EF92FF920F931F93CF93DF936C0114
:1004D0007B018B01040F151FEB015E01AE18BF08F5
:1004E000C017D10759F06991D601ED91FC910190A7
:1004F000F081E02DC6011995892B79F7C501DF91AF
:10050000CF911F910F91FF90EF90DF90CF90BF9010
:10051000AF900895FC01538D448D252F30E0842F3A
:1005200090E0821B930B541710F0CF96089501971B
:100530000895FC01918D828D981761F0A28DAE0F08
:10054000BF2FB11D5D968C91928D9F5F9F73928F8F
:1005500090E008958FEF9FEF0895FC01918D828DBB
:10056000981731F0828DE80FF11D858D90E0089588
:100570008FEF9FEF0895FC01918D228D892F90E0E0
:10058000805C9F4F821B91098F73992708958FEC90
:1005900095E00E94BB0221E0892B09F420E0822F24
:1005A0000895FC01A48DA80FB92FB11DA35ABF4F08
:1005B0002C91848D90E001968F739927848FA68962
:1005C000B7892C93A089B1898C91837080648C93B6
:1005D000938D848D981306C00288F389E02D808165
:1005E0008F7D80830895EF92FF920F931F93CF9397
:1005F000DF93EC0181E0888F9B8D8C8D98131AC05E
:10060000E889F989808185FF15C09FB7F894EE8944
:10061000FF896083E889F9898081837080648083A1
:100620009FBF81E090E0DF91CF911F910F91FF90EC
:10063000EF900895F62E0B8D10E00F5F1F4F0F7394
:100640001127E02E8C8D8E110CC00FB607FCFACF4F
:10065000E889F989808185FFF5CFCE010E94D1021A
:10066000F1CFEB8DEC0FFD2FF11DE35AFF4FF08220
:100670009FB7F8940B8FEA89FB8980818062CFCF86
:10068000682F8FEC95E00C94F302CF93DF93EC018D
:10069000888D8823B9F0AA89BB89E889F9898C916A
:1006A00085FD03C0808186FD0DC00FB607FCF7CF26
:1006B0008C9185FFF2CF808185FFEDCFCE010E9426
:1006C000D102E9CFDF91CF91089580E090E0892BAE
:1006D00029F00E94C70281110E94000080E090E092
:1006E000892B49F080E090E0892B29F00E940000DE
:1006F00081110E94000080E090E0892B49F080E0A9
:1007000090E0892B29F00E94000081110E940000D6
:1007100080E090E0892B49F080E090E0892B29F07F
:100720000E94000081110C940000089581508231D4
:1007300008F05AC0E82FF0E08827EE55FC4F8F4FA5
:100740000C943011C203C603B403BA03BE03F4030E
:10075000C903CF03D303D903DD03E103E703EB03AD
:10076000F403EF03F503F903809180008F77809302
:1007700080000895809180008F7DF9CF8091800066
:10078000877FF5CF84B58F7784BD089584B58F7D3D
:10079000FBCF8091B0008F778093B0000895809157
:1007A000B0008F7DF9CF809190008F77809390007B
:1007B0000895809190008F7DF9CF80919000877F80
:1007C000F5CF8091A0008F778093A000089580914D
:1007D000A0008F7DF9CF8091A000877FF5CF809119
:1007E00020018F77809320010895809120018F7DD3
:1007F000F9CF80912001877FF5CFCF93DF93282F0A
:1008000030E0F901EE51FD4F8491F901E456FD4FBE
:10081000D491F901EA5AFD4FC491CC23A1F0811182
:100820000E949603EC2FF0E0EE0FFF1FE45CFD4FFB
:10083000A591B491EC91ED2381E090E009F480E082
:10084000DF91CF91089580E090E0FACF862F0C944D
:10085000FD031F93CF93DF93282F30E0F901EE5172
:10086000FD4F8491F901E456FD4FD491F901EA5A04
:10087000FD4FC491CC23A9F0162F81110E9496033D
:10088000EC2FF0E0EE0FFF1FEE5DFD4FA591B49150
:100890008FB7F894EC91111108C0D095DE23DC934A
:1008A0008FBFDF91CF911F910895DE2BF8CF862F58
:1008B000642F0C942904CF93DF9390E0FC01E4565D
:1008C000FD4F24918A5A9D4FFC0184918823C9F0E1
:1008D00090E0880F991FFC01E85FFD4FA591B4914E
:1008E000FC01EE5DFD4FC591D49161110DC09FB724
:1008F000F8948C91209582238C93888128232883D7
:100900009FBFDF91CF910895623051F49FB7F89463
:100910003C91822F809583238C93E8812E2BEFCFFF
:100920008FB7F894EC912E2B2C938FBFEACF862FA4
:10093000642F0C945B046F927F928F929F92AF9280
:10094000BF92CF92DF92EF92FF920F931F93CF93BC
:10095000DF9381E08093E4068FB7F8944091CB0554
:100960005091CC056091CD057091CE058FBF8091DF
:10097000D4069091D506A091D606B091D706481B13
:10098000590B6A0B7B0B8091E0069091E106B0E079
:10099000A0E084179507A607B70708F01DC1C0E0BF
:1009A0008091DE06C81760F4E091DA06F091DB066C
:1009B000EC0FF11D62E080810E945B04CF5FF0CFFD
:1009C000712C812C912C540183948091DF06781630
:1009D00008F05FC0072D10E0E091DC06F091DD0625
:1009E000E00FF11F61E080810E945B04E091DC0672
:1009F000F091DD06E00FF11F60E080810E94290484
:100A0000D501C401072C04C0880F991FAA1FBB1F62
:100A10000A94D2F76C017C01E094F094612C8091EF
:100A2000DE066816F8F4C62DD0E0E091DA06F09103
:100A3000DB06EC0FFD1F80810E94FD032496CC0F86
:100A4000DD1FC858D94F892B41F4888199818C29A1
:100A50009D29998388836394E2CF888199818E212F
:100A60009F21F7CFE091DC06F091DD06E00FF11F4A
:100A700061E080810E9429048091DC069091DD066E
:100A8000080F191F60E0F80180810E945B047394D5
:100A90009CCFC8E7D6E0FE018FEF9FEF278D30A1F6
:100AA000232B21F4148E968F858F11A2369626E083
:100AB000E43BF20799F7F12C96E0D92E8091DE06FF
:100AC000F81608F050C0E12C0F2D10E0000F111F98
:100AD0000058194F2091DF06E21608F042C0F801D5
:100AE000608171810E2C02C0769567950A94E2F7B9
:100AF000F29E900111242E0D311DE8E7F6E080E012
:100B0000458D568D2417350709F46AC08F5F3696D8
:100B10008A30B1F760FF23C0E8E7F6E090E080E0BC
:100B2000448D411117C0E091D806F091D906E20F2B
:100B3000F31F4081D89EF001D99EF00D1124E85892
:100B4000F94F448F368F258F10A2178E61E00E94D7
:100B5000EB0105C0019636968A30910509F7E394BA
:100B6000B9CFF394ABCF80E099A19111892F26964C
:100B7000F6E0C43BDF07C1F79FB7F8944091CB057F
:100B80005091CC056091CD057091CE059FBF4093EB
:100B9000D4065093D5066093D6067093D706882363
:100BA000D9F0809199068823B9F0809197069091A9
:100BB0009806019789F480919406DF91CF911F9157
:100BC0000F91FF90EF90DF90CF90BF90AF909F90EC
:100BD0008F907F906F9008951092E40680E0EDCFA3
:100BE0006170B5CF3FB7F89480915305909154054B
:100BF000A0915505B091560526B5A89B05C02F3F7D
:100C000019F00196A11DB11D3FBFBA2FA92F982F32
:100C10008827BC01CD01620F711D811D911D42E02D
:100C2000660F771F881F991F4A95D1F708958F92F5
:100C30009F92AF92BF92CF92DF92EF92FF924B01C1
:100C40005C010E94F2056B017C010E94F2056C19A7
:100C50007D098E099F09683E734081059105A8F3BF
:100C600021E0821A9108A108B10888EEC80E83E03D
:100C7000D81EE11CF11C81149104A104B10429F7D0
:100C8000FF90EF90DF90CF90BF90AF909F908F90AC
:100C9000089520912F05260F3327331F2132310568
:100CA000ECF42091A105FC0190E080E0243069F093
:100CB00082E00895A0912F052191AC01415F5A4F28
:100CC000A40FB52FB11D2C930196861798F3809130
:100CD0002F05680F60932F0580E0089581E0089547
:100CE0001092A10581E08093A00510927B0561E040
:100CF00084E10E94290461E085E10E942904E9EB76
:100D0000F0E080818E7F808380818D7F808388E486
:100D10008093B80085E48093BC000895CF93DF935F
:100D200091E090930E058823B9F0C091B800D0915E
:100D3000BA008091BC008A7B8093BC0060E084E1B3
:100D40000E94290460E085E10E9429040E94700647
:100D5000D093BA00C093B800DF91CF9108958F92DD
:100D60009F92AF92BF92CF92DF92EF92FF920F933A
:100D70001F93CF93DF93D091CA05D13208F0D7C02B
:100D8000182FC091C9050E94F2056B017C0180916A
:100D9000A10581116BC082E08093A1051093A0058D
:100DA0008FEF80939F0510929E05D0939D05A9EA31
:100DB000B5E0EDE7F5E080E0D81391C010927C0536
:100DC00080917C05CC0FC82BC0937C0580917B055E
:100DD000813009F088C010927B050E94F2056B01FA
:100DE0007C0180917C058093BB008091A30590914C
:100DF000A405A091A505B091A605892B8A2B8B2B64
:100E0000A1F00E94F2050091A3051091A405209184
:100E1000A5053091A6056C197D098E099F09061755
:100E200017072807390708F442C08091BC0083FDEA
:100E3000D8CF85EC8093BC000E94F2056B017C0149
:100E40008091A105823009F450C080919F058F3FA9
:100E500009F46FC080919F05803209F46CC08091C5
:100E60009F05803309F469C084E026C08091A30502
:100E70009091A405A091A505B091A605892B8A2B78
:100E80008B2B09F484CF0E94F2058090A3059090EB
:100E9000A405A090A505B090A6056C197D098E0942
:100EA0009F0986169706A806B90608F070CF8091AC
:100EB000A2050E948E0685E01092A8051092CA0530
:100EC0001092A705DF91CF911F910F91FF90EF90A6
:100ED000DF90CF90BF90AF909F908F9008959D919D
:100EE00091938F5F69CF85EEA5CF8091A3059091F7
:100EF000A405A091A505B091A605892B8A2B8B2B63
:100F000009F49ECF0E94F2050091A3051091A4055B
:100F10002091A5053091A6056C197D098E099F09C0
:100F2000061717072807390708F08ACFC0CF81E0D6
:100F3000C3CF80E0C1CF82E0BFCF83E0BDCF0895B3
:100F4000E0915C0580915B05E81730F4F0E0E25138
:100F5000FB4F808190E008958FEF9FEF089590916F
:100F60005C0580915B052FEF3FEF981748F4E92F60
:100F7000F0E0E251FB4F208130E09F5F90935C05F1
:100F8000C901089580915B0590915C05891B990BBF
:100F90000895CF92DF92EF92FF920F931F93CF931A
:100FA000DF937C01CB018A012091A705222389F0E0
:100FB000EB016B01C40ED51ECC15DD0569F06991FE
:100FC000D701ED91FC910190F081E02DC7011995B9
:100FD000F3CF642F0E944906C801DF91CF911F9182
:100FE0000F91FF90EF90DF90CF900895CF93DF9314
:100FF0001F92CDB7DEB769832091A7052223F9F0B0
:101000002091CA05203258F021E030E0FC01338302
:10101000228390E080E00F90DF91CF91089580913E
:10102000A805E82FF0E0E755FA4F998190838F5F8C
:101030008093A8058093CA0581E090E0ECCF61E041
:10104000CE0101960E944906F7CF90E080E0089516
:10105000CF93DF93D82FC62F81E08093A70580E53B
:101060008093C9051092A8051092CA0560E08CE62D
:1010700096E00E94F6076D2F8CE696E00E94F60738
:101080006C2F8CE696E00E94F60781E0DF91CF910D
:101090000C94AF0642E050E06CE472E08FEC95E017
:1010A0000C945D02CF93DF93FC0101900020E9F7DF
:1010B0003197AF01481B590BBC018FEC95E00E94A2
:1010C0005D02EC010E944A088C0F9D1FDF91CF91B9
:1010D0000895CF93DF930E944003EC010E944A08D9
:1010E0008C0F9D1FDF91CF91089585ED8093BC00FB
:1010F0008091A3059091A405A091A505B091A605A6
:101100000796A11DB11D23E0B695A79597958795E4
:101110002A95D1F72091BC0024FD03C01092A105AF
:1011200008954091A3055091A4056091A505709183
:10113000A605452B462B472B69F30097A105B10562
:1011400041F025E32A95F1F700000197A109B109C3
:10115000E1CF8091A2050C948E06CF92DF92EF92A0
:10116000FF920F931F93CF93C82F81E08093A70521
:1011700080E58093C9051092A8051092CA0560E029
:101180008CE696E00E94F6076C2F8CE696E00E94B3
:10119000F60781E00E94AF060E94F2056B017C0118
:1011A0008091A105811164C081E08093A1058093A5
:1011B000A0059FEF90939F0510929E0510929D05AC
:1011C00080937C0580917C05806A80937C0580916A
:1011D0007B05813009F08BC010927B050E94F205DF
:1011E0006B017C0180917C058093BB008091A305FD
:1011F0009091A405A091A505B091A605892B8A2BF5
:101200008B2BA1F00E94F2050091A3051091A4057B
:101210002091A5053091A6056C197D098E099F09BD
:10122000061717072807390708F443C08091BC0048
:1012300083FDD8CF85EC8093BC000E94F2056B0142
:101240007C018091A105813009F453C080919E05F5
:10125000C1E0811102C0C0919E05ADE7B5E0EEEEA0
:10126000F4E080E08C1751F19D9191938F5FFACF5C
:101270008091A3059091A405A091A505B091A60524
:10128000892B8A2B8B2B09F48BCF0E94F2050091BE
:10129000A3051091A4052091A5053091A6056C1910
:1012A0007D098E099F09061717072807390708F0D7
:1012B00077CF8091A2050E948E06C0E010925C0557
:1012C000C0935B0561E070E080E090E00E9417064B
:1012D00080E0CC2321F08CE696E00E94AF07CF910E
:1012E0001F910F91FF90EF90DF90CF90089585EEC2
:1012F000A2CF8091A3059091A405A091A505B091DE
:10130000A605892B8A2B8B2B09F49BCF0E94F20513
:101310000091A3051091A4052091A5053091A60583
:101320006C197D098E099F090617170728073907C9
:1013300008F087CFBECF0F931F93CF9307E615E03A
:10134000C5E08C2F0E94AD08F80181938F01CF5F1B
:10135000CA30B9F78FE492E00E94520802E615E025
:101360008C2F0E94AD08F80181938F01CF5FCF30A1
:10137000B9F78FE592E00E9452080DE515E08C2F39
:101380000E94AD08F80181938F01CF5FC431B9F796
:101390008FE692E0CF911F910F910C9452081F920B
:1013A0000F920FB60F9211240BB60F922F933F930B
:1013B0004F935F936F937F938F939F93AF93BF935D
:1013C000EF93FF938FEC95E00E94D102FF91EF9194
:1013D000BF91AF919F918F917F916F915F914F914D
:1013E0003F912F910F900BBE0F900FBE0F901F904B
:1013F00018951F920F920FB60F9211240BB60F92F1
:101400002F938F939F93EF93FF93E091DF05F091DC
:10141000E0058081E091E505F091E60582FD1DC0C3
:1014200090818091E8058F5F8F732091E905821785
:1014300041F0E091E805F0E0E153FA4F958F809399
:10144000E805FF91EF919F918F912F910F900BBE27
:101450000F900FBE0F901F9018958081F2CF1F92B2
:101460000F920FB60F9211242F933F938F939F9358
:10147000AF93BF938091CB059091CC05A091CD0502
:10148000B091CE053091520523E0230F2D3758F54A
:101490000196A11DB11D209352058093CB05909319
:1014A000CC05A093CD05B093CE05809153059091C6
:1014B0005405A0915505B09156050196A11DB11D89
:1014C0008093530590935405A0935505B09356050A
:1014D000BF91AF919F918F913F912F910F900FBE30
:1014E0000F901F90189526E8230F0296A11DB11D9D
:1014F000D2CF1F920F920FB60F9211240BB60F92FC
:101500002F933F934F935F936F937F938F939F930B
:10151000AF93BF93EF93FF938091B900887F80369C
:1015200009F44DC008F040C0883209F4A9C028F57C
:10153000803109F49DC0C8F4882309F4FBC08830C9
:1015400009F496C0FF91EF91BF91AF919F918F9158
:101550007F916F915F914F913F912F910F900BBEB3
:101560000F900FBE0F901F901895883109F488C016
:10157000803241F780939F0514C0803409F49DC0E8
:1015800040F48033B9F38833E9F680939F0585EC06
:10159000B0C0803509F485C0883509F496C0883418
:1015A00089F60E947508CECF883909F48CC038F5C9
:1015B000883729F050F4883611F0803719F683E027
:1015C0008093A1051092510557C0883809F47BC05B
:1015D000803919F0803809F0B5CF809151058032FB
:1015E00008F071C0E091510581E08E0F80935105A4
:1015F0008091BB00F0E0EF5CFA4F80833DC0803B00
:1016000039F0E0F4803A09F479C0883A09F09ACFC9
:1016100084E08093A1051092300510922F05E0918F
:101620005905F0915A05199580912F0581110FC028
:1016300081E080932F0510920F0509C0803C09F4CA
:10164000A6CF883C09F4A3CF883B09F07BCFE0917B
:10165000300581E08E0F80933005F0E0E15FFA4FB6
:1016600080818093BB009091300580912F0529C027
:1016700080917C058093BB0085EC8093BC0062CF99
:1016800090919E0580919D05981758F5E0919E05D3
:1016900081E08E0F80939E05F0E0E358FA4F808141
:1016A000E9CFE0919E0581E08E0F80939E058091A9
:1016B000BB00F0E0E358FA4F808390919E05809143
:1016C0009D059817C8F285E8D8CFE0919E0581E086
:1016D0008E0F80939E058091BB00F0E0E358FA4F97
:1016E00080838091A00581115CCF81E080937B0590
:1016F00084EA8093BC001092A10524CF85EC8093EE
:10170000BC001092A10580915105803230F4E09127
:101710005105F0E0EF5CFA4F10826091510570E0E6
:10172000E0915705F091580581E395E019951092E5
:10173000510508CF10929F0534CF1092D205109218
:10174000D10588EE93E0A0E0B0E08093D3059093BC
:10175000D405A093D505B093D60522E232E03093AC
:10176000D0052093CF0525EC30E03093DC052093A5
:10177000DB0524EC30E03093DE052093DD0520EC22
:1017800030E03093E0052093DF0521EC30E030932A
:10179000E2052093E10522EC30E03093E40520934C
:1017A000E30526EC30E03093E6052093E505109242
:1017B000E8051092E9051092EA051092EB051092E7
:1017C0006F0610926E068093700690937106A09338
:1017D0007206B093730684E392E090936D06809353
:1017E0006C0610927A0610927E0610927D06109278
:1017F0007F0686E492E09093790680937806E4E988
:10180000F6E01082148213821582369686E0E03D5F
:10181000F807B9F784E092E09093DB068093DA064C
:1018200080E092E09093DD068093DC0684E0809374
:10183000DE068093DF0688E092E09093D9068093DD
:10184000D8068AE090E09093E1068093E00684EF6A
:1018500091E09093E3068093E2061092E6061092E0
:10186000E5061092D4061092D5061092D606109274
:10187000D7061092E4060895CF93DF93CDB7DEB775
:101880002F970FB6F894DEBF0FBECDBF789484B506
:10189000826084BD84B5816084BD85B5826085BD6C
:1018A00085B5816085BD80916E00816080936E00FA
:1018B00010928100809181008260809381008091EC
:1018C000810081608093810080918000816080939D
:1018D00080008091B10084608093B1008091B0005D
:1018E00081608093B000809191008260809391002C
:1018F000809191008160809391008091900081603F
:10190000809390008091A10082608093A1008091DB
:10191000A10081608093A1008091A00081608093EC
:10192000A00080912101826080932101809121019A
:10193000816080932101809120018160809320014A
:1019400080917A00846080937A0080917A0082602E
:1019500080937A0080917A00816080937A008091F0
:101960007A00806880937A001092C100E091DF05D0
:10197000F091E00582E08083E091DB05F091DC05E9
:101980001082E091DD05F091DE058FEC80831092EE
:10199000E705E091E305F091E40586E08083E091BE
:1019A000E105F091E205808180618083E091E105AD
:1019B000F091E205808188608083E091E105F091FB
:1019C000E205808180688083E091E105F091E20585
:1019D00080818F7D808310925C0510925B05109250
:1019E000A8051092CA050E9470068BE592E09093BC
:1019F0005A05809359058CE592E0909358058093A1
:101A0000570520E3722E39E3632E1E0186E0280E6F
:101A1000311C0E949B048823F9F090917905209154
:101A20007A052111E0C3911130C0A0907805A11072
:101A3000D3C18D32A1F08F3201F18B3269F481E88C
:101A400092E00E9452080E949B0982EA92E00E9462
:101A5000520881E0809379050E946503DACF81E81E
:101A600092E00E9452080E949B098DEB92E00E9436
:101A7000520881E080937A05EFCF87ED92E00E94D3
:101A8000520881E080937805E7CF823309F453C090
:101A9000833309F459C0813369F4E1E0F0E0F09355
:101AA0007605E093750587EF92E00E94520881E089
:101AB0008093770580917705882309F482C087E2B7
:101AC00093E00E94520886E493E00E94520810E0DE
:101AD00000E068E3E62E77E3D72EE6E3CE2EF5E3CB
:101AE000BF2EA4E3AA2EB3E39B2E82E3882E91E3BC
:101AF000592E0E949B04F82E8823D9F30E9440039C
:101B0000E0EDEF0DEE30A8F70E2E000CFF0B88274E
:101B1000E357F24F8F4F0C943011320EE80DF20D57
:101B2000FA0D020E0A0E120E1A0E220E2A0E790D50
:101B3000790D790DAD0D82E090E09093760580935C
:101B4000750587E093E0B1CFE3E0F0E0F093760530
:101B5000E093750587E193E0A8CF0530110509F4FE
:101B600089C083E693E00E94520884E20E946908DB
:101B700080E30E9440038EE492E00E94520864E6F3
:101B800070E080E090E00E94170683E793E00E94F7
:101B9000520810926D0510926C0510926F0510920C
:101BA0006E05109271051092700589E893E00E940D
:101BB00052081092720510927305109274051092DB
:101BC00077051092790589EE93E00E94520844CF80
:101BD000E1E0F0E0EC0FFD1FE00FF11F50820F5F1E
:101BE0001F4F87CFE1E0F0E0EC0FFD1FE00FF11F8A
:101BF0008082F5CFE1E0F0E0EC0FFD1FE00FF11F78
:101C00009082EDCFE1E0F0E0EC0FFD1FE00FF11F5F
:101C1000A082E5CFE1E0F0E0EC0FFD1FE00FF11F47
:101C2000B082DDCFE1E0F0E0EC0FFD1FE00FF11F2F
:101C3000C082D5CFE1E0F0E0EC0FFD1FE00FF11F17
:101C4000D082CDCFE1E0F0E0EC0FFD1FE00FF11FFF
:101C5000E082C5CFE1E0F0E0EC0FFD1FE00FF11FE7
:101C60006082BDCFE1E0F0E0EC0FFD1FE00FF11F5F
:101C70007082B5CF80917505909176058130910580
:101C800009F06CC0FE013196A7E6B5E030E020E037
:101C900051914D91541302C02F5F3F4FE215F30550
:101CA000B9F72530310509F05CCF0197FC01EE58FA
:101CB000FA4F2081211102C021E02083880F991F53
:101CC000FC01E459FA4F80819181833091050CF039
:101CD00059C00196918380838DE993E00E94520858
:101CE00084E20E94400380917505909176058230D0
:101CF000910509F44CC08330910509F44AC001975D
:101D000019F481E30E94690868E873E180E090E0DB
:101D10000E94170681ED93E00E94520884E20E941F
:101D2000400380917505909176058230910599F177
:101D30008330910591F1019719F487E30E946908B6
:101D4000E0917505F0917605EF58FA4F10821092E8
:101D500077058EE492E00E94520833CF82309105DD
:101D600009F029C2FE013196A2E6B5E030E020E09C
:101D700051914D91541302C02F5F3F4FE215F3056F
:101D8000B9F78FCF83EB93E00E94520818CF82E31C
:101D9000B9CF83E3B7CF88E3D1CF89E3CFCFE2E0F8
:101DA000F0E0F0937605E09375058EEF93E02DC299
:101DB00083E090E090937605809375058DE094E044
:101DC00024C285E30E94690846C286E3FBCF8CE10A
:101DD00094E00E9452083FC280E394E00E945208BF
:101DE000412CB12C512CC12C912C812CF12CE12CAB
:101DF00010E000E00E949B04D82EC110A2C08823EE
:101E000039F10E944003E0EDED0DEE3008F50E2EA5
:101E1000000CFF0B8827E05FF04F8F4F0C943011C0
:101E20008E0F1E0F4D0F550F5D0F650F6E0F760F46
:101E30007E0F860F280F280F280F2B0FE1E0F0E010
:101E4000EC0FFD1FE00FF11F81E380830F5F1F4F39
:101E5000552009F4C4C10530110509F067C0FE0121
:101E60003196A8E1B2E090E080E031912D913213FB
:101E700001C00196E215F305C1F75A2C059709F048
:101E8000B9CF89E494E00E94520882E694E00E946F
:101E9000520805E010E0CA2CADCFE1E0F0E0EC0F15
:101EA000FD1FE00FF11F82E3D0CFE1E0F0E0EC0F87
:101EB000FD1FE00FF11F83E3C8CFE1E0F0E0EC0F7E
:101EC000FD1FE00FF11F84E3C0CFE1E0F0E0EC0F75
:101ED000FD1FE00FF11F95E39083B8CFE1E0F0E044
:101EE000EC0FFD1FE00FF11F86E3AFCFE1E0F0E064
:101EF000EC0FFD1FE00FF11F97E3EECFE1E0F0E004
:101F0000EC0FFD1FE00FF11F88E39FCFE1E0F0E051
:101F1000EC0FFD1FE00FF11F608298CFE1E0F0E0D1
:101F2000EC0FFD1FE00FF11F708290CF83E693E06E
:101F30000E94520889ED94E00E94520810927805A0
:101F40008BCDB11033C0882309F454CF92E38917A5
:101F500099F0E3E38E17E9F0F1E38F134BCF8FE8AD
:101F600094E00E94520886E994E00E945208BC2C3A
:101F700088248394912C3ECF8EEA94E00E945208EC
:101F800086E994E00E945208BC2C22E0822E912C1B
:101F900031CF85EB94E00E94520886E994E00E94DC
:101FA0005208BC2C93E0892E912C24CF882341F138
:101FB0000E944003E0EDED0DEE3010F50E2E000C0A
:101FC000FF0B8827E951F04F8F4F0C943011AB1065
:101FD000F50F5F106B10771083108B1093109B1010
:101FE000A3100010001000100310EBE0F0E0EC0F65
:101FF000FD1FEE0DFF1D81E380838FEFE81AF80AC5
:10200000442009F4EEC085E0E816F10409F0CBC0E5
:1020100092E08916910409F4A6C0E3E08E169104BB
:1020200009F4B1C08A94892879F48B858093670577
:102030008C85809368058D85809369058E85809356
:102040006A058F8580936B0507E615E085E0F82E1D
:10205000F80161918F018F2D0E94280864E670E0DD
:1020600080E090E00E941706F394FAE0FF12F0CFB0
:1020700002E615E0F80161918F018F2D0E9428087A
:1020800064E670E080E090E00E941706F394FFE0C1
:10209000FF12F0CF0DE515E0F80161918F018F2D52
:1020A0000E94280864E670E080E090E00E94170635
:1020B000F394F4E1FF12F0CF8CEB94E039CFEBE036
:1020C000F0E0EC0FFD1FEE0DFF1D82E380839FEF1C
:1020D000E91AF90A95CFEBE0F0E0EC0FFD1FEE0DE9
:1020E000FF1D83E38083EFEFEE1AFE0A89CFEBE05A
:1020F000F0E0EC0FFD1FEE0DFF1D84E38083FFEF8A
:10210000EF1AFF0A7DCFEBE0F0E0EC0FFD1FEE0DC4
:10211000FF1D85E3DBCFEBE0F0E0EC0FFD1FEE0DE4
:10212000FF1D86E3D3CFEBE0F0E0EC0FFD1FEE0DDB
:10213000FF1D87E3CBCFEBE0F0E0EC0FFD1FEE0DD2
:10214000FF1D88E3C3CFEBE0F0E0EC0FFD1FEE0DC9
:10215000FF1D6082C8CFEBE0F0E0EC0FFD1FEE0D3D
:10216000FF1D7082CCCF8B85809362058C85809318
:1021700063058D85809364058E85809365058F85C5
:102180008093660561CF8B8580935D058C858093F8
:102190005E058D8580935F058E85809360058F85B4
:1021A0008093610551CF8CEC94E00E9452084B2C37
:1021B000CB2CB12C1FCE8330910509F0D2CCFE017F
:1021C0003196ADE5B5E030E020E051914D915413EA
:1021D00002C02F5F3F4F2E163F06B9F762CDC12CCC
:1021E00009CECB2C07CE911150CC823309F4D7CD38
:1021F000833309F4DDCD813369F481E090E090937D
:102200007605809375058FEE93E00E94520881E079
:10221000809377050091750510917605F801EE0F12
:10222000FF1FE659FA4F80819181009709F4CFCDC5
:1022300001979183808384E20E9440030530110559
:1022400009F4BFCD0630110509F4BFCD84E3043095
:10225000110509F4B7CD1092770510927A05FCCBE1
:10226000EE0FFF1F881F8BBF0790F691E02D19948A
:04227000F894FFCF10
:102274000E0F10110D0C0B0A3738392F3435362A4E
:102284003132332D23303D2B3433323135000000CD
:102294000000F3025D028A024503BB029902AD020B
:1022A40000000000F607C90725089F07C207AF070B
:1022B400A007000000009704570426040D0A0050EC
:1022C400617373206F6E65206973207365740050A9
:1022D4006173732074776F20697320736574005081
:1022E4006173732074687265652069732073657403
:1022F4000067657474696E672070617373776F72B9
:10230400647320666F726D20656570726F6D2E2E1A
:102314002E00456E746572696E67204D6F64652C7E
:1023240020576869636820726F6F6D3F0045786954
:1023340074696E67204D6F64652C20576869636803
:1023440020726F6F6D3F004869206D616E61676533
:10235400722C456E746572203120746F20636F6E29
:1023640074696E75653A00456E746572696E6720AE
:10237400726F6F6D203100456E746572696E6720EF
:10238400726F6F6D203200456E746572696E6720DE
:10239400726F6F6D203300506C6561736520456EFC
:1023A40074657220526F6F6D277320506173737759
:1023B4006F72643A200028656E74657220706173D0
:1023C4007320616E64203D20746F2066696E6973AA
:1023D40068290057726F6E672050617373776F724C
:1023E400642100456D707479696E6720616C6C209E
:1023F400726F6F6D732E2E2E00436C6F73696E6750
:1024040020616C6C20646F6F72732E2E00456E74A5
:1024140065726564205375636365737366756C6C6C
:10242400792100526F6F6D2069732066756C6C2C76
:102434002074727920616761696E206C61746572C1
:1024440000436C6F73696E6720646F6F72206F66F0
:1024540020726F6F6D2E2E2E00446F6E6521004525
:10246400786974696E6720726F6F6D2031004578EA
:102474006974696E6720726F6F6D203200457869E8
:1024840074696E6720726F6F6D20330054686973CE
:1024940020726F6F6D20697320656D7074792100EF
:1024A400456E746572206D616E6167696E67207038
:1024B400617373776F72643A00617574686F7269DF
:1024C4007A6564207375636365737366756C6C7980
:1024D4002100576869636820726F6F6D27732070DD
:1024E400617373776F726420646F20796F752077DE
:1024F400616E7420746F206368616E67653F00527B
:102504006F6F6D2031004E6F7720656E7465722099
:102514006E65772070617373776F72643A00526FDF
:102524006F6D203200526F6F6D20330050617373F2
:10253400776F7264206973207365740057726F6ECD
:102544006720696E707574210045786974696E67D7
:0E255400207365742070617373776F7264007A
:00000001FF
